:020000040800F2
:1000000000000320D1AE0208FB95020817960208F3
:10001000339602084F9602086B9602080000000013
:10002000000000000000000000000000215A00084D
:100030008796020800000000995C0008A396020859
:1000400021AF020821AF020821AF020821AF020848
:1000500021AF020821AF020821AF020821AF020838
:1000600021AF02089902000821AF020821AF02085F
:1000700021AF020821AF020821AF020821AF020818
:1000800021AF020821AF020821AF020821AF020808
:1000900021AF020821AF020821AF020821AF0208F8
:1000A00021AF020821AF020821AF020821AF0208E8
:1000B00021AF020821AF020821AF020821AF0208D8
:1000C00021AF020821AF020821AF020821AF0208C8
:1000D00021AF020821AF020821AF020821AF0208B8
:1000E00021AF020821AF020821AF020821AF0208A8
:1000F00021AF020821AF020821AF020821AF020898
:1001000021AF020821AF020821AF020821AF020887
:1001100021AF020821AF020821AF020821AF020877
:1001200021AF020821AF020821AF020821AF020867
:1001300021AF0208B796020821AF020821AF0208DA
:1001400021AF020821AF020821AF020821AF020847
:1001500021AF020821AF020821AF020821AF020837
:1001600021AF020821AF020821AF020821AF020827
:1001700021AF020821AF020821AF020800000000F1
:1001800021AF020821AF020821AF020821AF020807
:1001900021AF020821AF020821AF020821AF0208F7
:0C01A00021AF020821AF020821AF0208C5
:1001C00010B5054C237833B9044B13B10448AFF391
:1001D00000800123237010BDE8090020000000000A
:1001E0007416030808B5034B1BB103490348AFF36A
:1001F000008008BD00000000EC0900207416030810
:10020000154B002B08BF134B9D46A3F5803A0021E8
:100210008B460F461348144A121A2AF0BDFE0F4BA4
:10022000002B00D098470E4B002B00D098470020A1
:10023000002104000D000D48002802D00C482BF0CE
:1002400057F82AF085FE2000290000F013F82AF064
:100250006FFE00BF0000080000000000000000006A
:1002600000000000E809002048EB0020F1B202087D
:10027000F5B6020880B500AF06F028F900F0F0FAF4
:1002800000F05EF900F02CFD00F0B0FB00F096FBF2
:1002900003F09AFFFEE7000080B500AF064B5B69F4
:1002A00003F00803002B05D0032000F0CAFA024B2C
:1002B00008225A6100BF80BD003C014080B584B077
:1002C00000AF78600023FB607B6803F00703002B1E
:1002D00004D07B6823F0070308337B6003F0D4FF6E
:1002E000164B1B68002B05D1154B23F007031A464C
:1002F000124B1A60134B1A687B6813444DF6F732A1
:10030000934213D80F4B1A687B681A440D4B1B6835
:100310009A420BD9094B1A680A4B1B681344FB60BD
:10032000084B1A687B681344064A136003F0BAFF4F
:10033000FB6818461037BD4680BD00BF08E60020A8
:100340000C0A002004E6002080B485B000AF78607D
:100350007B68002B0AD04FF0500383F31188BFF362
:100360006F8FBFF34F8FFB6000BFFEE700BF1437F6
:10037000BD465DF8047B704780B400AF034B00229C
:100380001A6000BFBD465DF8047B704704E600209C
:1003900080B400AF044B1B68C3F55B43F8331846C9
:1003A000BD465DF8047B704704E6002080B586B04A
:1003B00000AF4FF0500383F31188BFF36F8FBFF38B
:1003C0004F8FBB6000BF28F0CFFE042028F05AFFFB
:1003D000012028F057FF022028F054FF0023FB6083
:1003E000FB6883F3118800BF00237B604F4B1B6BBE
:1003F0004E4A43F0020313634C4B1B6B03F00203A2
:100400007B607B684A4B5B6A23F0FF03484A43F0FA
:1004100044035362464B1B6823F4BE03444A43F42F
:10042000B4031360424B424A9B689360404B5B6845
:100430003F4A43F4407353603D4BDB6823F4702321
:100440003B4A43F4A023D36000233B60374B1B6C33
:10045000364A43F400131364344B1B6C03F400134B
:100460003B603B68334B1B68324A23F00103136047
:1004700018F0FCFC78617B692F4AA2FB03239B0CDC
:100480003B612C4B5B6823F03F022A493B691343D5
:100490004B60284B1B6A23F03F023B69013325491F
:1004A00013430B62234BDB6923F44F4323F0FF0319
:1004B0007A69013A92092149A1FB02129209511C61
:1004C00040F6FC720A40002A0AD07A69013A920981
:1004D0001A49A1FB021292090132C2F30B0200E099
:1004E000042214491343CB61124B1B68114A23F0B9
:1004F000C00313600F4B9B6823F4434323F0FF03B7
:100500000C4A43F4804393600A4BDB68094A23F0AA
:10051000FF03D360074B1B68064A43F001031360D7
:1005200005F058FE00BF1837BD4680BD00380240B8
:10053000000402400054004083DE1B43632D3E054F
:1005400080B500AF00F006F900BF80BD80B582B075
:1005500000AF00237B60394B1B6B384A43F001032B
:100560001363364B1B6B03F001037B607B68344BDA
:100570001B68334A43F0C0031360314B9B68304A19
:1005800023F0C00393602E4B9B682D4A43F08003F9
:1005900093602B4BDB682A4A23F0C003D36000230F
:1005A0003B60264B5B6C254A43F480735364234BBA
:1005B0005B6C03F480733B603B68224B224A1A60F9
:1005C000204B00225A601F4B00229A601D4B0022D4
:1005D0001A611C4B00221A761A4B002283F8202045
:1005E000184B00225A62174B0022DA62154B002288
:1005F0009A62144B0022DA60124B0122DA61114B2D
:10060000002283F830200F4B00225A610D4806F07B
:1006100057F90E4B03221A600C4B01225A600B4B08
:1006200000229A60094B0022DA600849054806F06A
:1006300060FF00BF0837BD4680BD00BF00380240E4
:1006400000000240B4E9002000200140FCE9002045
:1006500080B582B000AF00237B60394B1B6B384AFA
:1006600043F004031363364B1B6B03F004037B60FE
:100670007B68344B1B68334A43F003031360314BF0
:100680009B68304A23F0030393602E4B9B682D4AEE
:1006900043F0020393602B4BDB682A4A23F00303E9
:1006A000D36000233B60264B5B6C254A43F4007308
:1006B0005364234B5B6C03F400733B603B68224B39
:1006C000224A1A60204B00225A601F4B00229A6077
:1006D0001D4B00221A611C4B00221A761A4B002275
:1006E00083F82020184B00225A62174B0022DA624E
:1006F000154B00229A62144B0022DA60124B012241
:10070000DA61114B002283F830200F4B00225A612E
:100710000D4806F0D5F80E4B0D221A600C4B012245
:100720005A600B4B00229A60094B0022DA6008499C
:10073000054806F0DEFE00BF0837BD4680BD00BF9D
:100740000038024000080240B4E9002000210140C6
:10075000FCE9002080B582B000AF00237B602A4B0B
:100760001B6B294A43F004031363274B1B6B03F0F5
:1007700004037B607B68254B9B68244A43F010038D
:100780009360224BDB68214A23F0C003D3601F4BE8
:100790001B681E4A23F0C00313601B4B5B6C1A4A94
:1007A00043F4804353641A4B9B68194A23F4704303
:1007B0009360174B9B68164A43F400539360144BA5
:1007C0009B68134A23F00F039360124B9B68114AF6
:1007D00043F0080393600F4BDB680E4A23F00803D5
:1007E000D3600C4B1B680B4A43F0080313600022D4
:1007F0000A21092008F0E1F9092008F0FAF900BF00
:100800000837BD4680BD00BF0038024000080240E6
:1008100000380140003C014080B582B000AF0023A9
:10082000FB71022000F06EF80346002B04D002207A
:1008300000F08CF80123FB71FB7918460837BD46A0
:1008400080BD80B582B000AF78607B68032B02D199
:10085000022000F02DF800BF0837BD4680BD00BF64
:1008600080B582B000AF00237B6013E00D4A7B6847
:10087000002142F8231005F0C3FE02460A497B68B6
:1008800041F82320094A7B68322142F823107B6813
:1008900001337B607B68072BE8DD00BF00BF0837B2
:1008A000BD4680BD2CEA00200CEA00204CEA002066
:1008B00080B584B000AF0346FB7105F0A1FEF8607F
:1008C000FB79184600F030F8B860FA68BB68D21AB5
:1008D000FB790A4951F823309A4207D9FB79084A33
:1008E00052F823200132064941F82320FB791846AB
:1008F00000F03EF800BF1037BD4680BD4CEA002036
:100900002CEA002080B483B000AF0346FB71FB7972
:10091000044A52F8233018460C37BD465DF8047B74
:10092000704700BF2CEA002080B483B000AF0346BC
:10093000FB71FB79044A52F8233018460C37BD4648
:100940005DF8047B704700BF0CEA002080B483B0E0
:1009500000AF0346FB71FB79044A002142F82310E3
:1009600000BF0C37BD465DF8047B70472CEA0020C1
:1009700090B583B000AF0346FB71FC7905F040FEF3
:100980000346034A42F8243000BF0C37BD4690BDF1
:100990000CEA002080B483B000AF03463960FB71DD
:1009A000FB793A68044941F8232000BF0C37BD4663
:1009B0005DF8047B704700BF4CEA002080B582B030
:1009C00002AF074B01930423009300234FF480727E
:1009D0000449054802F00CFF00BFBD4680BD00BFC2
:1009E0006CEA002090160308590A000880B582B00E
:1009F00002AF124B6C221A70104B72229A700F4B7E
:100A000000225A700D4B0022DA700D4B0193032324
:100A1000009300234FF480720A490B4802F0E8FE6D
:100A20000A4B01930223009300234FF4807208497C
:100A3000084802F0DDFE00BFBD4680BDA8E70020EB
:100A400074EA002098160308C10A000870EA002022
:100A5000A41603087B0A000880B500AFFFF7A6FCC8
:100A60004FF47A7003F092F800F04EF8022028F06C
:100A700037FC0A2003F08AF8F6E780B500AF4FF4A0
:100A80007A7003F083F80C4B5B780133DAB20A4BCF
:100A90005A70094B5B78094AA2FB03125209642180
:100AA00001FB02F29B1ADAB2034B5A704FF47A70D0
:100AB00003F06CF8E7E700BFA8E700201F85EB51C3
:100AC00080B500AF4FF47A7003F060F80C4BDB7820
:100AD0000133DAB20A4BDA70094BDB78094AA2FB20
:100AE00003125209642101FB02F29B1ADAB2044B91
:100AF000DA70042028F0F4FB642003F047F8E5E7FF
:100B0000A8E700201F85EB5190B585B004AF1C4BC2
:100B100000221A721B4B00221A701B4B00221A7003
:100B20001A4B5B78632B27D8184BDB78632B23D8C1
:100B3000164B5B780A221349184600F076F8134BDF
:100B4000DB780A221049184600F06FF80D4910486A
:100B500000F046F80F490E4800F042F80A490C48E8
:100B600000F03EF8064B6C4603F1100207CA84E819
:100B700007000FCB00F010F800BF0437BD4690BD52
:100B800084E70020ACE70020B0E70020A8E70020C1
:100B90008CE70020B016030884B080B500AF07F1E1
:100BA000080C8CE80F00002005F032FABB68DBB2BD
:100BB000FA68D2B21146184605F0D6FA074A07F18C
:100BC0001000012306CA05F05BFC05F045FA00BFE2
:100BD000BD46BDE8804004B0704700BF180000204B
:100BE00080B485B000AF786039607B68FB6002E05C
:100BF0007B6801337B607B681B78002BF8D107E0B2
:100C00003A68531C3B607B68591C796012781A70F3
:100C10003B681B78002BF3D17B6800221A7000BF61
:100C20001437BD465DF8047B704780B489B000AFCF
:100C3000F860B9601346FB710023FB76BB687B61EB
:100C4000FB790A2B02D07B6900221A70FB68002B0B
:100C500007D17B695A1C7A6130221A707B690022A5
:100C60001A70FB68002B07DA7B695A1C7A612D2207
:100C70001A70FB685B42FB6042F21073FB6121E07B
:100C8000FA68FB69B2FBF3F33B613B69002B02D1CD
:100C9000FB7E002B10D03B69DAB27B69591C79616D
:100CA0003032D2B21A703B69FA6902FB03F3FA6878
:100CB000D31AFB600123FB76FB69084AA2FB0323DE
:100CC000DB08FB61FB69002BDAD17B6900221A701B
:100CD00000BF2437BD465DF8047B7047CDCCCCCC3B
:100CE00080B582B002AF074B1B68019304230093C9
:100CF00000234FF480720449044802F079FD00BFDC
:100D0000BD4680BD78EA0020B4160308110D000826
:100D100080B500AF0220FFF7F5FD0346002B18D089
:100D20000220FFF713FE012028F0DAFA0B4B1B68B4
:100D3000184602F05FFF0346032B05D0074B1B68E4
:100D4000184603F0ADF804E0044B1B68184603F0A6
:100D50006BF9642002F01AFFDCE700BF74EA0020A0
:100D600080B582B000AF1C20FFF7A8FA78607B68DE
:100D7000002B07D07B6800221A607B68043318467A
:100D800000F0FAFA7B6818460837BD4680BD80B58A
:100D90008CB000AFF860B9607A603B60FB68BB6202
:100DA00000237B627B6803F07F43002B0AD04FF067
:100DB000500383F31188BFF36F8FBFF34F8FBB6175
:100DC00000BFFEE77B68002B0AD14FF0500383F38E
:100DD0001188BFF36F8FBFF34F8F7B6100BFFEE7BA
:100DE00004F080F80346002B02D13B68002B01D1B0
:100DF000012300E00023002B0AD14FF0500383F3BE
:100E00001188BFF36F8FBFF34F8F3B6100BFFEE7C9
:100E100003F03AFABB6A1B683B62B968F86800F0F5
:100E20008FF93A6ABB681A437B6813407A689A4222
:100E30000DD13A6ABB681343FB62BB6A1A687B68D0
:100E4000DB431A40BB6A1A6000233B6013E03B6837
:100E5000002B0BD0BB6A181D7B6843F0A0633A6877
:100E6000194603F0D3FC0023FB6204E0BB6A1B6855
:100E7000FB6201237B6203F015FAF8613B68002BEB
:100E80002CD0FB69002B07D1174B4FF080521A6012
:100E9000BFF34F8FBFF36F8F04F0E2F9F862FB6A84
:100EA00003F00073002B15D104F09CFEBB6A1B6895
:100EB000FB62FA6A7B6813407A689A4206D1BB6A81
:100EC0001A687B68DB431A40BB6A1A6004F0BAFEFA
:100ED00001237B62FB6A23F07F43FB62FB6A1846B7
:100EE0003037BD4680BD00BF04ED00E080B590B056
:100EF00000AFF860B9607A603B60FB687B630023F9
:100F0000BB6300233B63FB68002B0AD14FF0500307
:100F100083F31188BFF36F8FBFF34F8F3B6200BF26
:100F2000FEE7BB6803F07F43002B0AD04FF050036D
:100F300083F31188BFF36F8FBFF34F8FFB6100BF47
:100F4000FEE7BB68002B0AD14FF0500383F31188F2
:100F5000BFF36F8FBFF34F8FBB6100BFFEE703F09E
:100F6000C1FF0346002B02D1BB6C002B01D1012332
:100F700000E00023002B0AD14FF0500383F31188C7
:100F8000BFF36F8FBFF34F8F7B6100BFFEE703F0AE
:100F90007BF97B6B1B68FB623A68B968F86A00F002
:100FA000A5F9B862BB6A002B0ED0FB6AFB63002375
:100FB000BB647B68002B28D07B6B1A68BB68DB4363
:100FC0001A407B6B1A6020E0BB6C002B04D1FB6ADB
:100FD000FB6301233B6318E07B68002B03D0BB6BF2
:100FE00043F08073BB633B68002B03D0BB6B43F0C3
:100FF0008063BB637B6B181DBA68BB6B1343BA6C11
:10100000194603F003FC0023FB6303F04BF97862FD
:10101000BB6C002B31D07B6A002B07D1194B4FF0F2
:1010200080521A60BFF34F8FBFF36F8F04F018F92F
:10103000F863FB6B03F00073002B1AD104F0D2FDB0
:101040007B6B1B68FB633A68B968F86B00F04EF97C
:101050000346002B09D07B68002B06D07B6B1A68F7
:10106000BB68DB431A407B6B1A6001233B6304F0CF
:10107000E9FDFB6B23F07F43FB63FB6B18464037B6
:10108000BD4680BD04ED00E080B586B000AF78605D
:1010900039607B687B617B68002B0AD14FF050037D
:1010A00083F31188BFF36F8FBFF34F8FFB6000BFD7
:1010B000FEE73B6803F07F43002B0AD04FF050035C
:1010C00083F31188BFF36F8FBFF34F8FBB6000BFF7
:1010D000FEE704F087FD7B691B683B617B691A684A
:1010E0003B68DB431A407B691A6004F0ABFD3B6947
:1010F00018461837BD4680BD80B489B000AF78600F
:101100007B68FB61EFF311824FF0500383F311888A
:10111000BFF36F8FBFF34F8FFA60BB60FB68BB619B
:10112000FB691B687B61BB693B613B6983F3118889
:1011300000BF7B6918462437BD465DF8047B7047C5
:1011400080B58EB000AF7860396000233B637B6868
:10115000BB620023FB627B68002B0AD14FF0500377
:1011600083F31188BFF36F8FBFF34F8F3B6100BFD5
:10117000FEE73B6803F07F43002B0AD04FF050039B
:1011800083F31188BFF36F8FBFF34F8FFB6000BFF6
:10119000FEE7BB6A04337B627B6A08333B6203F081
:1011A00073F87B6ADB687B63BB6A1A683B681A4327
:1011B000BB6A1A603CE07B6B5B68FB617B6B1B6806
:1011C000BB610023FB62BB6903F07F437B61BB69AA
:1011D00023F07F43BB617B6903F08063002B08D160
:1011E000BB6A1A68BB691340002B0BD00123FB625A
:1011F00008E0BB6A1A68BB691340BA699A4201D118
:101200000123FB62FB6A002B10D07B6903F0807323
:10121000002B03D03A6BBB6913433B63BB6A1B686B
:1012200043F000731946786B03F08EFBFB697B6318
:101230007A6B3B6A9A42BED1BB6A1A683B6BDB434E
:101240001A40BB6A1A6003F02DF8BB6A1B68184687
:101250003837BD4680BD80B586B000AF78607B680A
:101260007B617B6904333B6103F00EF817E03B6957
:10127000DA683B6908339A420AD14FF0500383F38E
:101280001188BFF36F8FBFF34F8FFB6000BFFEE786
:101290003B69DB684FF00071184603F055FB3B6972
:1012A0001B68002BE3D17869FFF74EF802F0FAFFD4
:1012B00000BF1837BD4680BD80B582B000AF7860F2
:1012C000396039687868FFF73BFF00BF0837BD46D3
:1012D00080BD80B582B000AF7860396039687868C9
:1012E000FFF7D2FE00BF0837BD4680BD80B487B08F
:1012F00000AFF860B9607A6000237B617B68002BE7
:1013000007D1FA68BB681340002B0AD001237B6128
:1013100007E0FA68BB681340BA689A4201D101231A
:101320007B617B6918461C37BD465DF8047B7047BE
:1013300080B485B000AF78607B68BB607B68002BB1
:1013400002D10023FB6002E0BB689B69FB60FB6885
:1013500018461437BD465DF8047B704780B483B0EF
:1013600000AF786039607B683A689A6100BF0C37DB
:10137000BD465DF8047B704780B483B000AF7860F1
:101380007B6803F108027B685A607B684FF0FF328C
:101390009A607B6803F108027B68DA607B6803F17E
:1013A00008027B681A617B6800221A6000BF0C3754
:1013B000BD465DF8047B704780B483B000AF7860B1
:1013C0007B6800221A6100BF0C37BD465DF8047BC4
:1013D000704780B485B000AF786039607B685B6827
:1013E000FB603B68FA685A60FB689A683B689A60E1
:1013F000FB689B683A685A60FB683A689A603B6889
:101400007A681A617B681B685A1C7B681A6000BF87
:101410001437BD465DF8047B704780B485B000AFDB
:10142000786039603B681B68BB60BB68B3F1FF3F05
:1014300003D17B681B69FB600CE07B680833FB60B1
:1014400002E0FB685B68FB60FB685B681B68BA686E
:101450009A42F6D2FB685A683B685A603B685B6800
:101460003A689A603B68FA689A60FB683A685A6022
:101470003B687A681A617B681B685A1C7B681A6033
:1014800000BF1437BD465DF8047B704780B485B05B
:1014900000AF78607B681B69FB607B685B687A687B
:1014A00092689A607B689B687A6852685A60FB68A9
:1014B0005B687A689A4203D17B689A68FB685A60D5
:1014C0007B6800221A61FB681B685A1EFB681A6061
:1014D000FB681B6818461437BD465DF8047B7047EF
:1014E00080B584B000AF786039607B68FB60FB68D2
:1014F000002B0AD14FF0500383F31188BFF36F8F95
:10150000BFF34F8FBB6000BFFEE704F06BFBFB68CF
:101510001A68FB68DB6BF968096C01FB03F31A447A
:10152000FB689A60FB6800229A63FB681A68FB6894
:101530005A60FB681A68FB68DB6B013BF968096C51
:1015400001FB03F31A44FB68DA60FB68FF2283F8AF
:101550004420FB68FF2283F845203B68002B14D110
:10156000FB681B69002B1AD0FB681033184603F088
:1015700089F90346002B12D00C4B4FF080521A60B1
:10158000BFF34F8FBFF36F8F09E0FB68103318462E
:10159000FFF7F2FEFB6824331846FFF7EDFE04F078
:1015A00051FB012318461037BD4680BD04ED00E015
:1015B00080B58AB002AFF860B9601346FB71FB6872
:1015C000002B0AD14FF0500383F31188BFF36F8FC4
:1015D000BFF34F8F3B6100BFFEE7BB68002B02D11A
:1015E0000023FB6104E0FB68BA6802FB03F3FB61C4
:1015F000FB6954331846FEF761FEB861BB69002BE6
:101600000DD0BB697B617B6954337B61FA79BB691F
:10161000009313467A69B968F86800F005F8BB6969
:1016200018462037BD4680BD80B584B000AFF86055
:10163000B9607A60FB70BB68002B03D1BB69BA69E3
:101640001A6002E0BB697A681A60BB69FA68DA63FB
:10165000BB69BA681A640121B869FFF741FFBB6929
:10166000FA7883F85020BB6900229A6400BF1037D3
:10167000BD4680BD80B582B000AF78607B68002B2E
:101680000ED07B6800229A607B6800221A607B681B
:101690000022DA60002300220021786800F0B9F807
:1016A00000BF0837BD4680BD80B586B000AF034699
:1016B000FB7101237B6100233B61FB791A46396989
:1016C0007869FFF775FFF860F868FFF7D3FFFB68EC
:1016D00018461837BD4680BD90B587B000AF78601A
:1016E0007B683B613B69002B0AD14FF0500383F3C9
:1016F0001188BFF36F8FBFF34F8FFB6000BFFEE712
:101700003B699C6803F0DEFB03469C4211D13B69B8
:10171000DB685A1E3B69DA603B69DB68002B05D148
:10172000002300220021386900F073F801237B6157
:1017300001E000237B617B6918461C37BD4690BDE4
:1017400090B587B000AF786039607B683B613B69DA
:10175000002B0AD14FF0500383F31188BFF36F8F32
:10176000BFF34F8FFB6000BFFEE73B699C6803F04F
:10177000A9FB03469C4207D13B69DB685A1C3B69C5
:10178000DA6001237B610CE03968386900F084FB82
:1017900078617B69002B04D03B69DB685A1C3B698C
:1017A000DA607B6918461C37BD4690BD80B586B0AF
:1017B00000AF786039607B68002B0AD14FF050038E
:1017C00083F31188BFF36F8FBFF34F8F3B6100BF6F
:1017D000FEE73A687B689A420AD94FF0500383F3D8
:1017E0001188BFF36F8FBFF34F8FFB6000BFFEE721
:1017F000022200217868FFF7DBFE78617B69002B0D
:1018000002D07B693A689A637B6918461837BD46EF
:1018100080BD80B58EB000AFF860B9607A603B6083
:1018200000237B63FB683B633B6B002B0AD14FF0CB
:10183000500383F31188BFF36F8FBFF34F8F7B6229
:1018400000BFFEE7BB68002B03D13B6B1B6C002B7A
:1018500001D1012300E00023002B0AD14FF05003F7
:1018600083F31188BFF36F8FBFF34F8F3B6200BFCD
:10187000FEE73B68022B03D13B6BDB6B012B01D1F5
:10188000012300E00023002B0AD14FF0500383F323
:101890001188BFF36F8FBFF34F8FFB6100BFFEE76F
:1018A00003F020FB0346002B02D17B68002B01D103
:1018B000012300E00023002B0AD14FF0500383F3F3
:1018C0001188BFF36F8FBFF34F8FBB6100BFFEE77F
:1018D00004F088F93B6B9A6B3B6BDB6B9A4202D34B
:1018E0003B68022B46D13B6B9B6BFB623A68B96845
:1018F000386B00F064FEB8623B6B9B6C002B15D01C
:101900003B68022B02D1FB6A002B2FD13968386B60
:1019100001F0AFF80346002B28D04A4B4FF080521D
:101920001A60BFF34F8FBFF36F8F1FE03B6B5B6A93
:10193000002B10D03B6B2433184602F0A3FF034664
:10194000002B13D03F4B4FF080521A60BFF34F8FE4
:10195000BFF36F8F0AE0BB6A002B07D0394B4FF003
:1019600080521A60BFF34F8FBFF36F8F04F06AF994
:10197000012363E07B68002B03D104F063F90023AB
:101980005CE07B6B002B06D107F11003184603F0D7
:1019900063F801237B6304F055F902F075FC04F051
:1019A00021F93B6B93F844305BB2B3F1FF3F03D1B5
:1019B0003B6B002283F844203B6B93F845305BB2CD
:1019C000B3F1FF3F03D13B6B002283F8452004F0C5
:1019D00039F93A1D07F110031146184603F052F881
:1019E0000346002B24D1386B00F013FF0346002B75
:1019F00018D03B6B10337A681146184602F0E2FEAD
:101A0000386B00F06CFE02F04DFC0346002B7FF4B7
:101A10005FAF0C4B4FF080521A60BFF34F8FBFF394
:101A20006F8F55E7386B00F05AFE02F03BFC4FE732
:101A3000386B00F054FE02F035FC002318463837AE
:101A4000BD4680BD04ED00E080B58EB000AFF8600B
:101A5000B9607A603B60FB683B633B6B002B0AD14B
:101A60004FF0500383F31188BFF36F8FBFF34F8F95
:101A70007B6200BFFEE7BB68002B03D13B6B1B6C96
:101A8000002B01D1012300E00023002B0AD14FF0ED
:101A9000500383F31188BFF36F8FBFF34F8F3B6207
:101AA00000BFFEE73B68022B03D13B6BDB6B012BD6
:101AB00001D1012300E00023002B0AD14FF0500395
:101AC00083F31188BFF36F8FBFF34F8FFB6100BFAC
:101AD000FEE704F067F9EFF311824FF0500383F350
:101AE0001188BFF36F8FBFF34F8FBA617B61BB6902
:101AF000FB623B6B9A6B3B6BDB6B9A4202D33B689E
:101B0000022B3ED13B6B93F8453087F82B303A6877
:101B1000B968386B00F053FD97F92B30B3F1FF3FF4
:101B200024D13B6B9B6C002B0DD03968386B00F0D7
:101B3000A0FF0346002B21D07B68002B1ED07B68C2
:101B400001221A601AE03B6B5B6A002B16D03B6BDC
:101B50002433184602F096FE0346002B0ED07B6815
:101B6000002B0BD07B6801221A6007E097F82B301E
:101B70000133DBB25AB23B6B83F8452001237B6310
:101B800001E000237B63FB6A3B613B6983F31188BF
:101B900000BF7B6B18463837BD4680BD80B58EB020
:101BA00000AF786039607B683B633B6B002B0AD1E8
:101BB0004FF0500383F31188BFF36F8FBFF34F8F44
:101BC0003B6200BFFEE73B6B1B6C002B0AD04FF063
:101BD000500383F31188BFF36F8FBFF34F8FFB6107
:101BE00000BFFEE73B6B1B68002B03D13B6B9B6880
:101BF000002B01D1012300E00023002B0AD14FF07C
:101C0000500383F31188BFF36F8FBFF34F8FBB6116
:101C100000BFFEE704F0C6F8EFF311824FF0500367
:101C200083F31188BFF36F8FBFF34F8F7A613B61EE
:101C30007B69FB623B6B9B6BBB623B6BDB6BBA6A8A
:101C40009A423DD23B6B93F8453087F82730BB6A08
:101C50005A1C3B6B9A6397F92730B3F1FF3F24D1AD
:101C60003B6B9B6C002B0DD00021386B00F001FF0B
:101C70000346002B21D03B68002B1ED03B6801227D
:101C80001A601AE03B6B5B6A002B16D03B6B243367
:101C9000184602F0F7FD0346002B0ED03B68002BE0
:101CA0000BD03B6801221A6007E097F82730013318
:101CB000DBB25AB23B6B83F8452001237B6301E022
:101CC00000237B63FB6AFB60FB6883F3118800BF22
:101CD0007B6B18463837BD4680BD80B58CB000AFF1
:101CE000F860B9607A600023FB62FB68BB62BB6A84
:101CF000002B0AD14FF0500383F31188BFF36F8F8D
:101D0000BFF34F8F3B6200BFFEE7BB68002B03D1E0
:101D1000BB6A1B6C002B01D1012300E00023002BC8
:101D20000AD14FF0500383F31188BFF36F8FBFF3D5
:101D30004F8FFB6100BFFEE703F0D4F80346002B92
:101D400002D17B68002B01D1012300E00023002B8E
:101D50000AD14FF0500383F31188BFF36F8FBFF3A5
:101D60004F8FBB6100BFFEE703F03CFFBB6A9B6B7C
:101D70007B627B6A002B1FD0B968B86A00F089FCCF
:101D80007B6A5A1EBB6A9A63BB6A1B69002B0FD021
:101D9000BB6A1033184602F075FD0346002B07D0CE
:101DA0003C4B4FF080521A60BFF34F8FBFF36F8FE1
:101DB00003F048FF012369E07B68002B03D103F0A7
:101DC00041FF002362E0FB6A002B06D107F11003FC
:101DD000184602F041FE0123FB6203F033FF02F0DC
:101DE00053FA03F0FFFEBB6A93F844305BB2B3F1E1
:101DF000FF3F03D1BB6A002283F84420BB6A93F8FB
:101E000045305BB2B3F1FF3F03D1BB6A002283F8D8
:101E1000452003F017FF3A1D07F11003114618463D
:101E200002F030FE0346002B23D1B86A00F0B7FC65
:101E30000346002B17D0BB6A24337A681146184634
:101E400002F0C0FCB86A00F04AFC02F02BFA03462C
:101E5000002B89D10F4B4FF080521A60BFF34F8F88
:101E6000BFF36F8F80E7B86A00F039FC02F01AFA0E
:101E70007AE7B86A00F033FC02F014FAB86A00F0AE
:101E80008EFC0346002B3FF46FAF0023184630371B
:101E9000BD4680BD04ED00E080B58EB000AF786037
:101EA000396000237B637B68FB6200233B63FB6A32
:101EB000002B0AD14FF0500383F31188BFF36F8FCB
:101EC000BFF34F8F3B6200BFFEE7FB6A1B6C002B2A
:101ED0000AD04FF0500383F31188BFF36F8FBFF325
:101EE0004F8FFB6100BFFEE702F0FCFF0346002BB3
:101EF00002D13B68002B01D1012300E00023002B1D
:101F00000AD14FF0500383F31188BFF36F8FBFF3F3
:101F10004F8FBB6100BFFEE703F064FEFB6A9B6B63
:101F2000BB62BB6A002B24D0BB6A5A1EFB6A9A6351
:101F3000FB6A1B68002B04D103F0AAF90246FB6A76
:101F40009A60FB6A1B69002B0FD0FB6A103318469E
:101F500002F098FC0346002B07D0544B4FF0805200
:101F60001A60BFF34F8FBFF36F8F03F06BFE012337
:101F700097E03B68002B11D13B6B002B0AD04FF050
:101F8000500383F31188BFF36F8FBFF34F8F7B61D3
:101F900000BFFEE703F056FE002382E07B6B002BC0
:101FA00006D107F10C03184602F056FD01237B63AE
:101FB00003F048FE02F068F903F014FEFB6A93F8A0
:101FC00044305BB2B3F1FF3F03D1FB6A002283F8D8
:101FD0004420FB6A93F845305BB2B3F1FF3F03D175
:101FE000FB6A002283F8452003F02CFE3A4607F1F5
:101FF0000C031146184602F045FD0346002B32D172
:10200000F86A00F0CCFB0346002B26D0FB6A1B6865
:10201000002B09D103F0E6FDFB6A9B68184602F02D
:102020007FFF386303F00EFEFB6A24333A681146E3
:10203000184602F0C7FBF86A00F051FB02F032F9D3
:102040000346002B7FF468AF184B4FF080521A60A4
:10205000BFF34F8FBFF36F8F5EE7F86A00F03FFB6F
:1020600002F020F958E7F86A00F039FB02F01AF99B
:10207000F86A00F094FB0346002B3FF44DAF3B6B36
:10208000002B0DD003F0AEFDF86A00F080FA786204
:10209000FB6A9B68796A184603F048F803F0D2FDA2
:1020A000002318463837BD4680BD00BF04ED00E070
:1020B00080B58EB000AFF860B9607A6000237B63B2
:1020C000FB683B633B6B002B0AD14FF0500383F35B
:1020D0001188BFF36F8FBFF34F8F7B6200BFFEE7A6
:1020E000BB68002B03D13B6B1B6C002B01D1012380
:1020F00000E00023002B0AD14FF0500383F3118836
:10210000BFF36F8FBFF34F8F3B6200BFFEE702F05C
:10211000E9FE0346002B02D17B68002B01D101238D
:1021200000E00023002B0AD14FF0500383F3118805
:10213000BFF36F8FBFF34F8FFB6100BFFEE703F06C
:1021400051FD3B6B9B6BFB62FB6A002B21D03B6B11
:10215000DB68BB62B968386B00F09BFA3B6BBA6A0C
:10216000DA603B6B5B6A002B0FD03B6B2433184665
:1021700002F088FB0346002B07D03D4B4FF0805206
:102180001A60BFF34F8FBFF36F8F03F05BFD012326
:1021900069E07B68002B03D103F054FD002362E06B
:1021A0007B6B002B06D107F11403184602F054FC98
:1021B00001237B6303F046FD02F066F803F012FD95
:1021C0003B6B93F844305BB2B3F1FF3F03D13B6B01
:1021D000002283F844203B6B93F845305BB2B3F1A7
:1021E000FF3F03D13B6B002283F8452003F02AFD1B
:1021F0003A1D07F114031146184602F043FC03464A
:10220000002B23D1386B00F0CAFA0346002B17D0FD
:102210003B6B24337A681146184602F0D3FA386BC8
:1022200000F05DFA02F03EF80346002B87D1104B18
:102230004FF080521A60BFF34F8FBFF36F8F7EE76E
:10224000386B00F04CFA02F02DF878E7386B00F0AC
:1022500046FA02F027F8386B00F0A1FA0346002B8B
:102260003FF46DAF002318463837BD4680BD00BF30
:1022700004ED00E080B58EB000AFF860B9607A6020
:10228000FB683B633B6B002B0AD14FF0500383F399
:102290001188BFF36F8FBFF34F8F3B6200BFFEE724
:1022A000BB68002B03D13B6B1B6C002B01D10123BE
:1022B00000E00023002B0AD14FF0500383F3118874
:1022C000BFF36F8FBFF34F8FFB6100BFFEE703F0DB
:1022D00069FDEFF311824FF0500383F31188BFF3D0
:1022E0006F8FBFF34F8FBA617B61BB69FB623B6B42
:1022F0009B6BBB62BB6A002B2FD03B6B93F84430C7
:1023000087F82730B968386B00F0C3F9BB6A5A1EEA
:102310003B6B9A6397F92730B3F1FF3F12D13B6BC8
:102320001B69002B16D03B6B1033184602F0AAFA3B
:102330000346002B0ED07B68002B0BD07B6801225C
:102340001A6007E097F827300133DBB25AB23B6BD3
:1023500083F8442001237B6301E000237B63FB6A55
:102360003B613B6983F3118800BF7B6B18463837AC
:10237000BD4680BD80B58CB000AF786039607B68A9
:10238000BB62BB6A002B0AD14FF0500383F3118864
:10239000BFF36F8FBFF34F8FFB6100BFFEE73B685A
:1023A000002B03D1BB6A1B6C002B01D1012300E081
:1023B0000023002B0AD14FF0500383F31188BFF3A1
:1023C0006F8FBFF34F8FBB6100BFFEE7BB6A1B6C13
:1023D000002B0AD14FF0500383F31188BFF36F8FA6
:1023E000BFF34F8F7B6100BFFEE703F0DBFCEFF331
:1023F00011824FF0500383F31188BFF36F8FBFF347
:102400004F8F3A61FB603B697B62BB6A9B6B002B21
:102410000CD0BB6ADB683B623968B86A00F039F9F6
:10242000BB6A3A6ADA600123FB6201E00023FB62C7
:102430007B6ABB60BB6883F3118800BFFB6A1846E8
:102440003037BD4680BD80B584B000AF78607B6812
:10245000002B0AD14FF0500383F31188BFF36F8F25
:10246000BFF34F8FBB6000BFFEE703F0BBFB7B6891
:102470009B6BFB6003F0E6FBFB6818461037BD461C
:1024800080BD80B586B000AF78607B687B617B697A
:10249000002B0AD14FF0500383F31188BFF36F8FE5
:1024A000BFF34F8FFB6000BFFEE703F09BFB7B6930
:1024B000DA6B7B699B6BD31A3B6103F0C3FB3B690F
:1024C00018461837BD4680BD80B487B000AF78602D
:1024D0007B687B617B69002B0AD14FF0500383F34B
:1024E0001188BFF36F8FBFF34F8FFB6000BFFEE714
:1024F0007B699B6B3B613B6918461C37BD465DF8A9
:10250000047B704780B584B000AF78607B68FB6067
:10251000FB68002B0AD14FF0500383F31188BFF3FF
:102520006F8FBFF34F8FBB6000BFFEE7F86800F00E
:10253000FDF9F868FDF708FF00BF1037BD4680BD04
:1025400080B483B000AF78607B68DB6C18460C37D2
:10255000BD465DF8047B704780B483B000AF7860FF
:1025600039607B683A68DA6400BF0C37BD465DF8B5
:10257000047B704780B483B000AF78607B6893F8C9
:10258000503018460C37BD465DF8047B704780B468
:1025900085B000AF78607B685B6A002B06D07B68F3
:1025A0001B6B1B68C3F10703FB6001E00023FB60AA
:1025B000FB6818461437BD465DF8047B704780B54C
:1025C00086B000AFF860B9607A6000237B61FB6879
:1025D0009B6B3B61FB681B6C002B0DD1FB681B6880
:1025E000002B4DD1FB689B68184602F019FD7861FD
:1025F000FB6800229A6043E07B68002B19D1FB68DE
:102600005868FB681B6C1A46B96827F051FAFB68DA
:102610005A68FB681B6C1A44FB685A60FB685A686E
:10262000FB689B689A422BD3FB681A68FB685A6068
:1026300026E0FB68D868FB681B6C1A46B96827F06F
:1026400037FAFB68DA68FB681B6C5B421A44FB686C
:10265000DA60FB68DA68FB681B689A4207D2FB689D
:102660009A68FB681B6C5B421A44FB68DA607B6803
:10267000022B05D13B69002B02D03B69013B3B613A
:102680003B695A1CFB689A637B6918461837BD463C
:1026900080BD80B582B000AF786039607B681B6C0C
:1026A000002B18D07B68DA687B681B6C1A447B6847
:1026B000DA607B68DA687B689B689A4203D37B6840
:1026C0001A687B68DA607B68D9687B681B6C1A467D
:1026D000386827F0EDF900BF0837BD4680BD80B5EA
:1026E00084B000AF786003F07DFA7B6893F84530E2
:1026F000FB731FE07B689B6C002B09D0002178687E
:1027000000F0B7F90346002B10D002F01DFA0DE0DF
:102710007B685B6A002B12D07B682433184602F07A
:10272000B1F80346002B01D002F00EFAFB7B013B0F
:10273000DBB2FB7397F90F30002BDBDC00E000BF4E
:102740007B68FF2283F8452003F07CFA03F04AFA05
:102750007B6893F84430BB7311E07B681B69002BE6
:1027600012D07B681033184602F08CF80346002B19
:1027700001D002F0E9F9BB7B013BDBB2BB7397F9F7
:102780000E30002BE9DC00E000BF7B68FF2283F8FD
:10279000442003F057FA00BF1037BD4680BD80B516
:1027A00084B000AF786003F01DFA7B689B6B002B50
:1027B00002D10123FB6001E00023FB6003F042FA39
:1027C000FB6818461037BD4680BD80B487B000AFA7
:1027D00078607B683B613B69002B0AD14FF0500366
:1027E00083F31188BFF36F8FBFF34F8FFB6000BF80
:1027F000FEE73B699B6B002B02D101237B6101E06B
:1028000000237B617B6918461C37BD465DF8047B5D
:10281000704780B584B000AF786003F0E3F97B685F
:102820009A6B7B68DB6B9A4202D10123FB6001E06B
:102830000023FB6003F006FAFB6818461037BD461C
:1028400080BD80B487B000AF78607B683B613B6936
:10285000002B0AD14FF0500383F31188BFF36F8F21
:10286000BFF34F8FFB6000BFFEE73B699A6B3B698C
:10287000DB6B9A4202D101237B6101E000237B6183
:102880007B6918461C37BD465DF8047B704780B4F1
:1028900085B000AF786039600023FB6014E00F4A18
:1028A000FB6852F83330002B0BD10C49FB683A68B7
:1028B00041F83320094AFB68DB0013447A685A6008
:1028C00006E0FB680133FB60FB68072BE7D900BF1C
:1028D00000BF1437BD465DF8047B70477CEA0020DA
:1028E00080B485B000AF78600023BB600023FB603C
:1028F00010E00D4AFB68DB0013445B687A689A427B
:1029000005D1094AFB6852F83330BB6005E0FB682B
:102910000133FB60FB68072BEBD9BB681846143703
:10292000BD465DF8047B70477CEA002080B485B02A
:1029300000AF78600023FB6016E0104AFB68DB0004
:1029400013445B687A689A420BD10C4AFB680021F9
:1029500042F83310094AFB68DB00134400225A6036
:1029600006E0FB680133FB60FB68072BE5D900BF7D
:1029700000BF1437BD465DF8047B70477CEA002039
:1029800080B584B000AF7860002204217868FEF73B
:102990000FFEF860FB6818461037BD4680BD80B555
:1029A00084B000AF7860396003F01CF97B689B6CE1
:1029B000002B02D00023FB600BE07B689B6B002B9D
:1029C00002D00023FB6004E07B683A689A6401232C
:1029D000FB6003F037F9FB6818461037BD4680BD31
:1029E00080B584B000AF786039607B68BB60BB683D
:1029F0009B6C3A689A4202D00023FB600FE0BB68F0
:102A00009B6B002B02D00023FB6008E003F0EAF888
:102A1000BB6800229A6403F015F90123FB60FB6890
:102A200018461037BD4680BD80B584B000AF7860D1
:102A300039600023FB6007F10C033A681946786897
:102A4000FFF74BF9FB6818461037BD4680BD80B5CF
:102A500084B000AF78600023FB6007F10C03002214
:102A600019467868FFF706FCFB6818461037BD4624
:102A700080BD80B588B000AF786039607B689B6CA2
:102A8000BB610023FB61BB69002B0AD14FF05003EF
:102A900083F31188BFF36F8FBFF34F8F3B6100BF8C
:102AA000FEE7BB699A6BBB69DB6B9A420AD34FF0B6
:102AB000500383F31188BFF36F8FBFF34F8FFB6019
:102AC00000BFFEE7BB699A6BBB69DB6B9A4225D2FC
:102AD000BB6993F84530FB753B1D3A681946B869E8
:102AE000FFF76DFDF86197F91730B3F1FF3F0ED195
:102AF000BB695B6A002B11D0BB692433184601F017
:102B0000C1FE0346002B09D00123FB6106E0FB7DDB
:102B10000133DBB25AB2BB6983F84520FB69184622
:102B20002037BD4680BD00BF80B58CB002AFF860D5
:102B3000B9607A607B68012B10D1012387F82730B8
:102B4000FB68042B1BD84FF0500383F31188BFF3AD
:102B50006F8FBFF34F8FFB6100BFFEE7002387F845
:102B60002730FB68002B0AD14FF0500383F3118804
:102B7000BFF36F8FBFF34F8FBB6100BFFEE7BA6833
:102B8000FB689A420AD94FF0500383F31188BFF3D0
:102B90006F8FBFF34F8F7B6100BFFEE7BB68002BD9
:102BA00001D10123BB60FB680133FB60FB68243368
:102BB0001846FDF783FB38623B6A002B0AD03B6A5C
:102BC00003F1240197F827300093BB68FA68386A4C
:102BD00000F0B2FD3B6A18462837BD4680BD80B57F
:102BE00084B000AF78607B68FB60FB68002B0AD183
:102BF0004FF0500383F31188BFF36F8FBFF34F8FF4
:102C0000BB6000BFFEE7FB681B7F03F00203002BE5
:102C100003D1F868FDF798FB04E024220021F8684E
:102C200028F0BAF900BF1037BD4680BD80B588B026
:102C300002AF78607B683B6100237B613B69002BBE
:102C40000AD14FF0500383F31188BFF36F8FBFF3A6
:102C50004F8FBB6000BFFEE73B691B6AFB6002F061
:102C6000C1FF3B691B69002B15D13B695B69002BD8
:102C700011D13B6999693B699A683B69D8683B699E
:102C80001B7F00930346386900F056FD01237B61EA
:102C90003B69FA681A6202F0D5FF7B69184618375B
:102CA000BD4680BD80B487B000AF786039607B6876
:102CB0003B613B69002B0AD14FF0500383F311882D
:102CC000BFF36F8FBFF34F8FFB6000BFFEE73B6822
:102CD000002B01D101233B603B699B683A689A4213
:102CE00005D83B693A68DA6001237B6101E0002383
:102CF0007B617B6918461C37BD465DF8047B7047D5
:102D000080B487B000AF78607B683B613B69002B83
:102D10000AD14FF0500383F31188BFF36F8FBFF3D5
:102D20004F8FFB6000BFFEE73B699A683B691B68F9
:102D300013447B613B695B687A69D31A7B617B6969
:102D4000013B7B613B699B687A699A4204D33B698A
:102D50009B687A69D31A7B617B6918461C37BD462C
:102D60005DF8047B704780B586B000AF78607B6803
:102D70007B617B69002B0AD14FF0500383F31188EC
:102D8000BFF36F8FBFF34F8FFB6000BFFEE7786923
:102D900000F0B2FC38613B6918461837BD4680BD6B
:102DA00080B590B002AFF860B9607A603B60FB68B4
:102DB000FB6200237B637B683B63BB68002B0AD10B
:102DC0004FF0500383F31188BFF36F8FBFF34F8F22
:102DD0007B6200BFFEE7FB6A002B0AD14FF0500375
:102DE00083F31188BFF36F8FBFF34F8F3B6200BF38
:102DF000FEE7FB6A1B7F03F00103002B11D03B6B46
:102E000004333B633A6B7B689A420AD84FF0500315
:102E100083F31188BFF36F8FBFF34F8FFB6100BF48
:102E2000FEE73B68002B3ED007F11003184601F087
:102E3000EDFD02F0D7FEF86AFFF762FF78637A6B68
:102E40003B6B9A4217D2002002F0FAFCFB6A5B69E6
:102E5000002B0AD04FF0500383F31188BFF36F8F1C
:102E6000BFF34F8FBB6100BFFEE702F02BF80246B5
:102E7000FB6A5A6102E002F0E5FE14E002F0E2FEB5
:102E80003B6800220021002002F05EFAFB6A00226B
:102E90005A613A4607F110031146184601F0F2FD57
:102EA0000346002BC5D07B6B002B03D1F86AFFF7DC
:102EB00027FF78633B6B00937B6B7A68B968F86A8D
:102EC00000F094F8B862BB6A002B19D0F86A00F0E1
:102ED00013FC0246FB6ADB689A4211D301F0D4F975
:102EE000FB6A1B69002B09D0FB6A186900230022CA
:102EF000002102F083FAFB6A00221A6101F0D2F984
:102F0000BB6A18463837BD4680BD80B590B002AF69
:102F1000F860B9607A603B60FB683B637B687B6309
:102F2000BB68002B0AD14FF0500383F31188BFF325
:102F30006F8FBFF34F8F3B6200BFFEE73B6B002BF1
:102F40000AD14FF0500383F31188BFF36F8FBFF3A3
:102F50004F8FFB6100BFFEE73B6B1B7F03F001035C
:102F6000002B02D07B6B04337B63386BFFF7C8FE0A
:102F7000F8627B6B0093FB6A7A68B968386B00F083
:102F800035F8B862BB6A002B2BD0386B00F0B4FB6D
:102F900002463B6BDB689A4223D3EFF311824FF07A
:102FA000500383F31188BFF36F8FBFF34F8FBA6164
:102FB0007B61BB697B623B6B1B69002B0BD03B6B5E
:102FC00018693B68009300230022002102F0CCFA2C
:102FD0003B6B00221A617B6A3B613B6983F311887A
:102FE00000BFBB6A18463837BD4680BD80B586B085
:102FF00000AFF860B9607A603B603B68002B02D19B
:1030000000237B611DE0FB681B7F03F00103002BA5
:1030100008D101237B617A683B68934228BF13463D
:103020007B600EE03A683B6A9A4208D301237B61D9
:103030003B1D04221946F86800F072FA01E00023F3
:103040007B617B69002B07D07B681A46B968F868FA
:1030500000F066FA386101E000233B613B691846E5
:103060001837BD4680BD80B58EB002AFF860B9603C
:103070007A603B60FB683B620023FB62BB68002B0D
:103080000AD14FF0500383F31188BFF36F8FBFF362
:103090004F8FFB6100BFFEE73B6A002B0AD14FF068
:1030A000500383F31188BFF36F8FBFF34F8FBB6162
:1030B00000BFFEE73B6A1B7F03F00103002B02D039
:1030C00004237B6201E000237B623B68002B34D049
:1030D00002F088FD386A00F00FFBB862BA6A7B6ABA
:1030E0009A4216D8002002F0ABFB3B6A1B69002B0A
:1030F0000AD04FF0500383F31188BFF36F8FBFF3F3
:103100004F8F7B6100BFFEE701F0DCFE02463B6AA9
:103110001A6102F097FDBA6A7B6A9A4211D83B683D
:1031200000220021002002F00FF93B6A00221A6100
:10313000386A00F0E1FAB86203E0386A00F0DCFABD
:10314000B862BA6A7B6A9A421DD97B6A0093BB6AED
:103150007A68B968386A00F0D3F8F862FB6A002B25
:1031600011D001F091F83B6A5B69002B09D03B6AF2
:10317000586900230022002102F040F93B6A002236
:103180005A6101F08FF8FB6A18463037BD4680BDA2
:1031900080B58AB000AF78607B683B623B6A002BE9
:1031A0000AD14FF0500383F31188BFF36F8FBFF341
:1031B0004F8F7B6100BFFEE73B6A1B7F03F001037B
:1031C000002B27D0386A00F097FAF861FB69042BCE
:1031D0000FD93B6A1B68BB6107F10C01FB69042234
:1031E000386A00F00FFAFB687B623B6ABA691A60C2
:1031F00012E0FB69002B0AD04FF0500383F31188D3
:10320000BFF36F8FBFF34F8F3B6100BFFEE700231B
:103210007B6201E000237B627B6A18462837BD464B
:1032200080BD80B590B002AFF860B9607A603B6055
:10323000FB68FB6200237B63BB68002B0AD14FF065
:10324000500383F31188BFF36F8FBFF34F8F3B623F
:1032500000BFFEE7FB6A002B0AD14FF0500383F357
:103260001188BFF36F8FBFF34F8FFB6100BFFEE785
:10327000FB6A1B7F03F00103002B02D004233B6396
:1032800001E000233B63F86A00F036FAB862BA6ADC
:103290003B6B9A422FD93B6B0093BB6A7A68B96843
:1032A000F86A00F02DF878637B6B002B23D0EFF3E6
:1032B00011824FF0500383F31188BFF36F8FBFF378
:1032C0004F8FBA617B61BB697B62FB6A5B69002BD4
:1032D0000BD0FB6A58693B68009300230022002151
:1032E00002F042F9FB6A00225A617B6A3B613B694A
:1032F00083F3118800BF7B6B18463837BD4680BD0D
:1033000080B588B000AFF860B9607A603B60BB6A96
:10331000002B19D0FB681B68BB6107F110013B68EB
:10332000BA6AF86800F06EF93B69FB613A68BB6AFB
:10333000D31A3B60FA697B689A4207D9FB68BA697D
:103340001A600023FB6101E07B68FB613B68FA695E
:10335000B968F86800F056F978617B69184620373B
:10336000BD4680BD80B487B000AF78607B683B61AC
:103370003B69002B0AD14FF0500383F31188BFF350
:103380006F8FBFF34F8FBB6000BFFEE73B691B68C9
:10339000FB603B695B68FA689A4202D101237B615A
:1033A00001E000237B617B6918461C37BD465DF850
:1033B000047B704780B586B000AF78607B68FB60A7
:1033C000FB68002B0AD14FF0500383F31188BFF341
:1033D0006F8FBFF34F8FBB6000BFFEE7FB681B7FA3
:1033E00003F00103002B02D004233B6101E0002322
:1033F0003B617868FFF784FC02463B69934202D345
:1034000001237B6101E000237B617B69184618374B
:10341000BD4680BD80B58CB002AF786039607B68F6
:103420003B623B6A002B0AD14FF0500383F31188B3
:10343000BFF36F8FBFF34F8FBB6100BFFEE7EFF3AA
:1034400011824FF0500383F31188BFF36F8FBFF3E6
:103450004F8F7A613B617B69FB613B6A1B69002B83
:103460000ED03B6A18693B680093002300220021BC
:1034700002F07AF83B6A00221A6101237B6201E0C4
:1034800000237B62FB69FB60FB6883F3118800BF4C
:103490007B6A18462837BD4680BD80B58CB002AF28
:1034A000786039607B683B623B6A002B0AD14FF041
:1034B000500383F31188BFF36F8FBFF34F8FBB614E
:1034C00000BFFEE7EFF311824FF0500383F3118842
:1034D000BFF36F8FBFF34F8F7A613B617B69FB61F5
:1034E0003B6A5B69002B0ED03B6A58693B680093CE
:1034F00000230022002102F037F83B6A00225A61C3
:1035000001237B6201E000237B62FB69FB60FB68B7
:1035100083F3118800BF7B6A18462837BD4680BDFB
:1035200080B58AB000AFF860B9607A607B68002B24
:103530000AD14FF0500383F31188BFF36F8FBFF3AD
:103540004F8FFB6100BFFEE7FB685B687B62FB6837
:103550009A687B6AD31A7A68934228BF13463B6203
:103560007A6A3B6A1A44FB689B689A420AD94FF010
:10357000500383F31188BFF36F8FBFF34F8FBB618D
:1035800000BFFEE7FB689A697B6A13443A6AB96830
:10359000184626F08DFA7A683B6A9A421CD97A68F6
:1035A0003B6AD21AFB689B689A420AD94FF05003D3
:1035B00083F31188BFF36F8FBFF34F8F7B6100BF21
:1035C000FEE7FB689869BA683B6AD1187A683B6A7B
:1035D000D31A1A4626F06CFA7A6A7B6813447B6227
:1035E000FB689B687A6A9A4204D3FB689B687A6A94
:1035F000D31A7B62FB687A6A5A607B681846283760
:10360000BD4680BD80B58AB000AFF860B9607A6011
:103610003B607A683B68934228BF13463B623B6A33
:10362000002B64D0FB681B687B62FB689A687B6A2E
:10363000D31A3A6A934228BF1346FB61FA697B6842
:103640009A420AD94FF0500383F31188BFF36F8F6A
:10365000BFF34F8FBB6100BFFEE77A6AFB691A4474
:10366000FB689B689A420AD94FF0500383F3118894
:10367000BFF36F8FBFF34F8F7B6100BFFEE7FB6827
:103680009A697B6A1344FA691946B86826F010FAF9
:103690003A6AFB699A4219D93A6A7B689A420AD90E
:1036A0004FF0500383F31188BFF36F8FBFF34F8F39
:1036B0003B6100BFFEE7BA68FB69D018FB689969F7
:1036C0003A6AFB69D31A1A4626F0F2F97A6A3B6A1B
:1036D00013447B62FB689B687A6A9A4204D3FB6856
:1036E0009B687A6AD31A7B62FB687A6A1A603B6AC3
:1036F00018462837BD4680BD80B485B000AF7860DD
:103700007B689A687B685B681344FB607B681B6816
:10371000FA68D31AFB607B689B68FA689A4204D304
:103720007B689B68FA68D31AFB60FB6818461437FD
:10373000BD465DF8047B704780B586B000AFF86089
:10374000B9607A603B6055237B617A687969B868B3
:1037500027F022FC0246BB6893420AD04FF0500388
:1037600083F31188BFF36F8FBFF34F8F3B6100BFAF
:10377000FEE724220021F86827F00EFCFB68BA68F7
:103780009A61FB687A689A60FB683A68DA60FB685D
:1037900097F820201A7700BF1837BD4680BD80B447
:1037A00083B000AF78607B681B6A18460C37BD4653
:1037B0005DF8047B704780B483B000AF78603960F7
:1037C0007B683A681A6200BF0C37BD465DF8047B1F
:1037D000704780B483B000AF78607B681B7F03F0D4
:1037E0000103DBB218460C37BD465DF8047B704719
:1037F00080B58CB004AFF860B9603B601346FB80C5
:10380000FB889B001846FCF759FD78617B69002B0B
:103810000ED05C20FCF752FDF861FB69002B03D051
:10382000FB697A691A6305E07869FCF78DFD01E0B0
:103830000023FB61FB69002B13D0FA88002303935C
:10384000FB690293FB6A0193BB6A00933B68B9680A
:10385000F86800F00EF8F86900F09AF80123BB61EF
:1038600002E04FF0FF33BB61BB6918462037BD460D
:1038700080BD80B588B000AFF860B9607A603B6009
:103880003B6B186B7B689B001A46A52127F084FBD5
:103890003B6B1A6B7B6803F18043013B9B00134435
:1038A000BB61BB6923F00703BB61BB6903F007037E
:1038B000002B0AD04FF0500383F31188BFF36F8FB2
:1038C000BFF34F8F7B6100BFFEE7BB68002B1FD0AB
:1038D0000023FB6112E0BA68FB69134419783A6B64
:1038E000FB69134434330A461A70BA68FB691344FF
:1038F0001B78002B06D0FB690133FB61FB690F2BA2
:10390000E9D900E000BF3B6B002283F8432003E0CD
:103910003B6B002283F83420BB6A062B01D90623B7
:10392000BB623B6BBA6ADA623B6BBA6ADA643B6BC6
:1039300000221A653B6B04331846FDF73DFD3B6BD7
:1039400018331846FDF738FD3B6B3A6B1A61BB6ABA
:10395000C3F107023B6B9A613B6B3A6B5A623B6B5C
:1039600000225A653B6B002283F858203A68F968B8
:10397000B86901F0F5FF02463B6B1A60FB6A002B49
:1039800002D0FB6A3A6B1A6000BF2037BD4680BD8B
:1039900080B582B000AF786002F024F92C4B1B6830
:1039A00001332B4A13602B4B1B68002B09D1294A8A
:1039B0007B681360264B1B68012B10D101F010F9B6
:1039C0000DE0254B1B68002B09D1224B1B68DA6ADE
:1039D0007B68DB6A9A4202D81E4A7B6813601F4BE1
:1039E0001B6801331D4A13601C4B1A687B685A64BC
:1039F0007B68DB6A01229A40194B1B681343184A03
:103A000013607B68DA6A13469B0013449B00154AD7
:103A10001A447B68043319461046FDF7DAFC02F0BD
:103A200011F90D4B1B68002B0ED00A4B1B68DA6A8C
:103A30007B68DB6A9A4207D20B4B4FF080521A60C8
:103A4000BFF34F8FBFF36F8F00BF0837BD4680BDF8
:103A50000CE700200CE6002018E7002028E70020F3
:103A600014E7002010E6002004ED00E080B584B0EB
:103A700000AF786002F0B6F87B68002B02D1394BBA
:103A80001B6800E07B68FB60FB6804331846FDF7A9
:103A9000FDFC0346002B15D1FB68DA6A3249134658
:103AA0009B0013449B000B441B68002B0AD1FB684E
:103AB000DB6A012202FA03F3DA432C4B1B68134042
:103AC0002A4A1360FB689B6A002B04D0FB681833FA
:103AD0001846FDF7DBFC264B1B680133244A1360B4
:103AE000204B1B68FA689A420BD1FB6804331946D5
:103AF0002048FDF76EFC204B1B6801331E4A136003
:103B000009E01E4B1B68013B1C4A1360F86801F07A
:103B1000A9F901F0B7F902F095F8194B1B68002BD1
:103B20001BD0104B1B68FA689A4216D1154B1B68C4
:103B3000002B0AD04FF0500383F31188BFF36F8F2F
:103B4000BFF34F8FBB6000BFFEE70F4B4FF08052BB
:103B50001A60BFF34F8FBFF36F8F00BF1037BD46A2
:103B600080BD00BF0CE6002010E6002014E7002016
:103B700028E70020E0E60020F4E600200CE7002023
:103B800018E7002034E7002004ED00E080B584B0A1
:103B900000AF78600023FB607B68002B17D0134BCD
:103BA0001B68002B0AD04FF0500383F31188BFF33A
:103BB0006F8FBFF34F8FBB6000BFFEE700F064FB69
:103BC0000021786801F062FE00F06CFBF860FB6891
:103BD000002B07D1064B4FF080521A60BFF34F8F76
:103BE000BFF36F8F00BF1037BD4680BD34E70020A4
:103BF00004ED00E080B588B000AF78607B68BB6101
:103C0000BB69002B0AD14FF0500383F31188BFF337
:103C10006F8FBFF34F8FBB6000BFFEE7234B1B6866
:103C2000BA699A4202D10023FB773AE001F0DAFF49
:103C3000BB695B697B611E4B1B683B611D4B1B684D
:103C4000FB6001F0FFFF7A693B699A4203D07A6911
:103C5000FB689A4202D10223FB7722E07B69164A75
:103C6000934212D1BB699B6A002B0BD1BB6993F8BD
:103C70005830DBB2012B02D10223FB7711E0032382
:103C8000FB770EE00223FB770BE07B690B4A934244
:103C900002D07B69002B02D10423FB7701E00123D2
:103CA000FB77FB7F18462037BD4680BD0CE6002021
:103CB000C4E60020C8E60020F8E60020E0E6002088
:103CC00080B584B000AF786001F08CFF7B68002B7A
:103CD00002D1074B1B6800E07B68FB60FB68DB6A76
:103CE000BB6001F0AFFFBB6818461037BD4680BD12
:103CF0000CE6002080B588B000AF786002F052F882
:103D0000EFF311824FF0500383F31188BFF36F8FED
:103D1000BFF34F8F3A61FB603B69FB617B68002B0F
:103D200002D1094B1B6800E07B68BB61BB69DB6AA1
:103D30007B61FB69BB60BB6883F3118800BF7B6953
:103D400018462037BD4680BD0CE6002080B588B0FF
:103D500000AF786039600023FB613B68062B0AD90D
:103D60004FF0500383F31188BFF36F8FBFF34F8F72
:103D7000FB6000BFFEE73B68062B01D906233B60D2
:103D800001F030FF7B68002B02D1414B1B6800E043
:103D90007B68BB61BB69DB6C7B617A693B689A427B
:103DA0006FD03A687B699A420DD9394B1B68BA6962
:103DB0009A420FD0364B1B68DB6A3A689A4209D3A5
:103DC0000123FB6106E0324B1B68BA699A4201D1BC
:103DD0000123FB61BB69DB6A3B61BB69DA6CBB69D0
:103DE000DB6A9A4202D1BB693A68DA62BB693A6817
:103DF000DA64BB699B69002B04DB3B68C3F10702F3
:103E0000BB699A61BB6959693A6913469B001344BF
:103E10009B00204A1344994228D1BB6904331846B9
:103E2000FDF734FB0346002B09D101223B6902FA5E
:103E300003F3DA43184B1B681340174A1360BB693E
:103E4000DB6A01229A40144B1B681343124A136029
:103E5000BB69DA6A13469B0013449B000D4A1A445F
:103E6000BB69043319461046FDF7B3FAFB69002B12
:103E700007D00A4B4FF080521A60BFF34F8FBFF349
:103E80006F8F01F0DFFE00BF2037BD4680BD00BF51
:103E90000CE6002010E6002014E7002004ED00E00E
:103EA00080B584B000AF786001F09CFE7B68002B89
:103EB00002D13C4B1B6800E07B68FB60FB6804336D
:103EC0001846FDF7E3FA0346002B15D1FB68DA6AC2
:103ED000354913469B0013449B000B441B68002B81
:103EE0000AD1FB68DB6A012202FA03F3DA432F4BA3
:103EF0001B6813402D4A1360FB689B6A002B04D09B
:103F0000FB6818331846FDF7C1FAFB6804331946FD
:103F10002748FDF75EFAFB6893F85830DBB2012BB7
:103F200003D1FB68002283F8582001F08BFE214B5F
:103F30001B68002B05D001F055FE00F0A3FF01F037
:103F400081FE184B1B68FA689A4227D1194B1B68EF
:103F5000002B17D0184B1B68002B0AD04FF05003D2
:103F600083F31188BFF36F8FBFF34F8FBB6000BF28
:103F7000FEE7124B4FF080521A60BFF34F8FBFF332
:103F80006F8F0BE00A4B1A680D4B1B689A4203D1E6
:103F9000044B00221A6001E000F0B8FB00BF1037AC
:103FA000BD4680BD0CE6002010E6002014E700208E
:103FB000F8E6002018E7002034E7002004ED00E0D8
:103FC0000CE7002080B487B000AF786000237B61ED
:103FD0007B683B617B68002B0AD14FF0500383F371
:103FE0001188BFF36F8FBFF34F8FFB6000BFFEE7F9
:103FF0003B695B690A4A93420AD13B699B6A094A59
:10400000934205D03B699B6A002B01D101237B6160
:104010007B6918461C37BD465DF8047B704700BFBE
:10402000F8E60020CCE6002080B584B000AF7860D0
:104030007B68FB607B68002B0AD14FF0500383F351
:104040001188BFF36F8FBFF34F8FBB6000BFFEE7D8
:10405000204B1B68FA689A4237D0FB68002B34D09B
:1040600001F0C0FDF868FFF7ADFF0346002B2AD032
:10407000FB6804331846FDF709FAFB68DB6A012286
:104080009A40154B1B681343134A1360FB68DA6AA6
:1040900013469B0013449B00104A1A44FB680433E8
:1040A00019461046FDF795F9FB68DA6A094B1B685B
:1040B000DB6A9A4207D30A4B4FF080521A60BFF373
:1040C0004F8FBFF36F8F01F0BDFD00BF1037BD46AE
:1040D00080BD00BF0CE6002014E7002010E60020A1
:1040E00004ED00E080B58AB000AF786000237B6209
:1040F0007B683B627B68002B0AD14FF0500383F34F
:104100001188BFF36F8FBFF34F8FBB6100BFFEE716
:1041100001F048FEEFF311824FF0500383F3118852
:10412000BFF36F8FBFF34F8F7A613B617B69FB6198
:10413000386AFFF747FF0346002B2FD01D4B1B6843
:10414000002B25D13B6ADA6A1B4B1B68DB6A9A425B
:1041500001D301237B623B6A04331846FDF796F9CD
:104160003B6ADB6A01229A40144B1B681343134AD3
:1041700013603B6ADA6A13469B0013449B00104AA3
:104180001A443B6A043319461046FDF722F905E04C
:104190003B6A183319460B48FDF71BF9FB69FB60B6
:1041A000FB6883F3118800BF7B6A18462837BD4639
:1041B00080BD00BF34E700200CE6002014E700209B
:1041C00010E60020CCE6002080B586B002AF1C4B84
:1041D000019300230093002380221A491A48FFF715
:1041E00007FBF860FB68012B16D14FF0500383F3F7
:1041F0001188BFF36F8FBFF34F8FBB6000BF134BAE
:104200004FF0FF321A60124B01221A60114B00224C
:104210001A6001F02AFC0EE0FB68B3F1FF3F0AD1FF
:104220004FF0500383F31188BFF36F8FBFF34F8FAD
:104230007B6000BFFEE700BF1037BD4680BD00BFFA
:1042400030E70020C0160308B34B00082CE700201D
:1042500018E7002010E7002080B582B000AF4FF0D3
:10426000500383F31188BFF36F8FBFF34F8F7B60D1
:1042700000BF044B00221A6001F098FC00BF083711
:10428000BD4680BD18E7002080B400AF044B1B681A
:104290000133034A136000BFBD465DF8047B7047DD
:1042A00034E7002080B584B000AF0023FB6000231A
:1042B000BB60414B1B68002B0AD14FF0500383F3C6
:1042C0001188BFF36F8FBFF34F8F3B6000BFFEE7D6
:1042D00001F088FC384B1B68013B374A1360364BB2
:1042E0001B68002B61D1354B1B68002B5DD02EE085
:1042F000334BDB68DB68FB60FB6818331846FDF75F
:10430000C5F8FB6804331846FDF7C0F8FB68DB6AA4
:1043100001229A402B4B1B6813432A4A1360FB6807
:10432000DA6A13469B0013449B00274A1A44FB6831
:10433000043319461046FDF74CF8FB68DA6A234B44
:104340001B68DB6A9A4202D3214B01221A601C4B84
:104350001B68002BCCD1FB68002B01D000F092FD34
:104360001C4B1B687B607B68002B10D000F016F99B
:104370000346002B02D0164B01221A607B68013BDA
:104380007B607B68002BF1D1124B00221A60104B2E
:104390001B68002B09D00123BB600F4B4FF08052EC
:1043A0001A60BFF34F8FBFF36F8F01F04BFCBB68F8
:1043B00018461037BD4680BD34E700200CE70020CA
:1043C000CCE6002014E7002010E600200CE60020D8
:1043D00020E700201CE7002004ED00E080B483B05B
:1043E00000AF054B1B687B607B6818460C37BD46E9
:1043F0005DF8047B704700BF10E7002080B582B0F5
:1044000000AF01F0CFFC00237B60044B1B683B60D6
:104410003B6818460837BD4680BD00BF10E7002046
:1044200080B400AF034B1B681846BD465DF8047BA3
:10443000704700BF0CE7002080B485B000AF786003
:104440007B68002B02D10D4B1B6800E07B68FB6092
:10445000FB68002B0AD14FF0500383F31188BFF3A0
:104460006F8FBFF34F8FBB6000BFFEE7FB68343335
:1044700018461437BD465DF8047B70470CE60020F3
:1044800080B586B000AFF860B9607A6000237B61C8
:1044900007233B61FFF7F8FE3A4B1B68BA689A4264
:1044A00068D33B69013B3B617A691346DB001344E7
:1044B0009B001A46FB6898183A6913469B00134400
:1044C0009B00314A13440122194600F05DFC02466C
:1044D0007B6913447B613B69002BE2D17A69134607
:1044E000DB0013449B001A46FB681344274A1168FB
:1044F0000222184600F048FC02467B6913447B61A7
:104500007A691346DB0013449B001A46FB68134488
:104510001F4A11680222184600F036FC02467B69E9
:1045200013447B617A691346DB0013449B001A46EF
:10453000FB68134404221749184600F025FC024684
:104540007B6913447B617A691346DB0013449B004B
:104550001A46FB68134403220F49184600F014FC66
:1045600002467B6913447B617B68002B02D07B6829
:1045700000221A60FFF796FE7B6918461837BD4681
:1045800080BD00BF0CE7002010E60020C4E600203C
:10459000C8E60020E0E60020F8E6002080B586B0FE
:1045A00000AF00237B614E4B1B68002B40F08880DE
:1045B0004C4B1B6801333B614A4A3B6913603B69C2
:1045C000002B20D1484B1B681B68002B0AD04FF0F2
:1045D000500383F31188BFF36F8FBFF34F8F3B609E
:1045E00000BFFEE7404B1B68FB60404B1B683E4A28
:1045F00013603E4AFB6813603D4B1B6801333C4A25
:10460000136000F03FFC3B4B1B683A699A4248D369
:10461000354B1B681B68002B04D1364B4FF0FF3223
:104620001A603EE0304B1B68DB68DB68BB60BB6830
:104630005B687B603A697B689A4203D22D4A7B684B
:1046400013602EE0BB6804331846FCF71FFFBB68FD
:104650009B6A002B04D0BB6818331846FCF716FF82
:10466000BB68DB6A01229A40234B1B681343224A32
:104670001360BB68DA6A13469B0013449B001F4A11
:104680001A44BB68043319461046FCF7A2FEBB6807
:10469000DA6A1B4B1B68DB6A9A42B9D301237B6140
:1046A000B6E7174B1B68DA6A144913469B0013449C
:1046B0009B000B441B68012B07D901237B6104E09D
:1046C000104B1B6801330F4A13600F4B1B68002B04
:1046D00001D001237B617B6918461837BD4680BD38
:1046E00034E7002010E70020C4E60020C8E60020E0
:1046F00024E700202CE7002014E7002010E600202B
:104700000CE600201CE7002020E7002080B487B0E2
:1047100000AF274B1B68002B03D0264B01221A60E9
:104720003FE0244B00221A60234B1B68FB60FB68B0
:10473000B3FA83F3FB72FB7AC3F11F037B611F495A
:104740007A6913469B0013449B000B441B68002BA3
:104750000AD14FF0500383F31188BFF36F8FBFF37B
:104760004F8F7B6000BFFEE77A6913469B001344BE
:104770009B00124A13443B613B695B685A683B6982
:104780005A603B695A683B6908339A4204D13B69D5
:104790005B685A683B695A603B695B68DB68084A3A
:1047A000136000BF1C37BD465DF8047B704700BF37
:1047B00034E7002020E7002014E7002010E6002066
:1047C0000CE6002080B584B000AF786039607B686B
:1047D000002B0AD14FF0500383F31188BFF36F8F82
:1047E000BFF34F8FFB6000BFFEE7074B1B6818331A
:1047F00019467868FCF711FE0121386801F046F887
:1048000000BF1037BD4680BD0CE6002080B586B0E5
:1048100000AFF860B9607A60FB68002B0AD14FF0F6
:10482000500383F31188BFF36F8FBFF34F8F7B610A
:1048300000BFFEE7114B1B68002B0AD14FF050035D
:1048400083F31188BFF36F8FBFF34F8F3B6100BFBE
:10485000FEE70B4B1B68BA6842F000429A61084BB6
:104860001B6818331946F868FCF7B3FD0121786816
:1048700001F00CF800BF1837BD4680BD34E70020BA
:104880000CE6002080B586B000AF78607B68DB68FE
:10489000DB683B613B69002B0AD14FF0500383F387
:1048A0001188BFF36F8FBFF34F8FFB6000BFFEE730
:1048B0003B6918331846FCF7E9FD1D4B1B68002BBC
:1048C0001CD13B6904331846FCF7E0FD3B69DB6A09
:1048D00001229A40174B1B681343164A13603B6929
:1048E000DA6A13469B0013449B00134A1A443B693F
:1048F000043319461046FCF76CFD05E03B6918339C
:1049000019460E48FCF765FD3B69DA6A0C4B1B68DB
:10491000DB6A9A4205D901237B610A4B01221A60A6
:1049200001E000237B617B6918461837BD4680BDD6
:1049300034E7002014E7002010E60020CCE6002039
:104940000CE6002020E7002080B586B000AF78603C
:104950003960294B1B68002B0AD14FF0500383F3B9
:104960001188BFF36F8FBFF34F8F3B6100BFFEE72E
:104970003B6843F000427B681A607B68DB687B61C0
:104980007B69002B0AD14FF0500383F31188BFF3EA
:104990006F8FBFF34F8FFB6000BFFEE77868FCF7B7
:1049A00075FD7B6904331846FCF770FD7B69DB6A93
:1049B00001229A40114B1B681343104A13607B6914
:1049C000DA6A13469B0013449B000D4A1A447B6924
:1049D000043319461046FCF7FCFC7B69DA6A094B84
:1049E0001B68DB6A9A4202D9074B01221A6000BF9A
:1049F0001837BD4680BD00BF34E7002014E7002013
:104A000010E600200CE6002020E7002080B584B0EE
:104A100000AF78607B68002B0AD14FF0500383F31E
:104A20001188BFF36F8FBFF34F8FFB6000BFFEE7AE
:104A300001F0D8F8064B1A687B681A60054B1A68B3
:104A40007B685A6001F0FEF800BF1037BD4680BD9C
:104A500024E7002010E7002080B483B000AF786026
:104A6000064B1A687B681A60054B1A687B685A60A7
:104A700000BF0C37BD465DF8047B704724E700207B
:104A800010E7002080B588B000AF786039607B689F
:104A9000002B0AD14FF0500383F31188BFF36F8FBF
:104AA000BFF34F8F3B6100BFFEE73B68002B0AD18D
:104AB0004FF0500383F31188BFF36F8FBFF34F8F15
:104AC000FB6000BFFEE701F08DF81D4B1B68BB616A
:104AD0007B685B68BA69D31A7B613B681B68B3F17A
:104AE000FF3F02D10023FB6123E07B681A68154B6E
:104AF0001B689A4207D07B685B68BA699A4202D306
:104B00000123FB6115E03B681B687A699A420BD26E
:104B10003B681A687B69D21A3B681A607868FFF7AD
:104B20009BFF0023FB6104E03B6800221A60012325
:104B3000FB6101F087F8FB6918462037BD4680BD50
:104B400010E7002024E7002080B400AF034B0122CF
:104B50001A6000BFBD465DF8047B704720E7002067
:104B600080B485B000AF78607B68002B05D07B688F
:104B7000BB60BB689B6CFB6001E00023FB60FB68D3
:104B800018461437BD465DF8047B704780B485B085
:104B900000AF786039607B68002B04D07B68FB60D5
:104BA000FB683A689A6400BF1437BD465DF8047B21
:104BB000704780B582B000AF786000F051F8064BC6
:104BC0001B68012BF9D9054B4FF080521A60BFF3D7
:104BD0004F8FBFF36F8FF0E710E6002004ED00E089
:104BE00080B582B000AF00237B600CE07A6813468A
:104BF0009B0013449B00124A13441846FCF7BCFB6D
:104C00007B6801337B607B68062BEFD90D48FCF78E
:104C1000B3FB0D48FCF7B0FB0C48FCF7ADFB0C48B0
:104C2000FCF7AAFB0B48FCF7A7FB0B4B054A1A60E5
:104C30000A4B054A1A6000BF0837BD4680BD00BF59
:104C400010E600209CE60020B0E60020CCE6002024
:104C5000E0E60020F8E60020C4E60020C8E60020D8
:104C600080B582B000AF19E000F0BCFF104BDB68EC
:104C7000DB687B607B6804331846FCF707FC0D4B50
:104C80001B68013B0B4A13600B4B1B68013B0A4A34
:104C9000136000F0D7FF786800F0E4F8064B1B685B
:104CA000002BE1D100BF00BF0837BD4680BD00BF6B
:104CB000E0E600200CE70020F4E6002080B586B096
:104CC00000AFF860B9607A60FB70FB68002B02D11E
:104CD0002C4B1B6800E0FB687B61BB687A691A603B
:104CE0007B6903F13402BB685A607B69DA6ABB688E
:104CF0001A617B691A6BBB68DA617B695A6CBB68A5
:104D00009A607B69DA6CBB685A61BB6800229A6161
:104D1000FB78052B1AD01B4B1B687A699A4203D18A
:104D2000BB6800221A7318E0BB68FA781A73FB7824
:104D3000032B12D1FFF7A8FA7B699B6A002B02D0E4
:104D4000BB6802221A73FFF7ADFA06E07869FEF736
:104D500051FF03461A46BB681A737B68002B09D0C3
:104D60007B691B6B184600F061F803461A46BB6866
:104D70001A8402E0BB6800221A8400BF1837BD46BF
:104D800080BD00BF0CE6002080B58AB000AFF8609F
:104D9000B9601346FB7100237B62BB681B68002B64
:104DA0003FD0BB683B623B6A5B685A683B6A5A60AB
:104DB0003B6A5A683B6A08339A4204D13B6A5B6893
:104DC0005A683B6A5A603B6A5B68DB68FB61BB6898
:104DD000BB61BB695B685A68BB695A60BB695A684A
:104DE000BB6908339A4204D1BB695B685A68BB69E6
:104DF0005A60BB695B68DB687B617A6A1346DB00DB
:104E000013449B001A46FB689918FB7901227869C4
:104E1000FFF754FF7B6A01337B627A69FB699A4230
:104E2000D5D17B6A18462837BD4680BD80B485B091
:104E300000AF78600023FB6005E07B6801337B6096
:104E4000FB680133FB607B681B78A52BF5D0FB6802
:104E50009B08FB60FB689BB218461437BD465DF8A3
:104E6000047B704780B582B000AF78607B681B6BB5
:104E70001846FBF769FA7868FBF766FA00BF08374F
:104E8000BD4680BD80B483B000AF0C4B1B681B686F
:104E9000002B04D10A4B4FF0FF321A6008E0074B99
:104EA0001B68DB68DB687B607B685B68044A1360B7
:104EB00000BF0C37BD465DF8047B7047C4E6002098
:104EC0002CE7002080B483B000AF054B1B687B60EB
:104ED0007B6818460C37BD465DF8047B704700BF01
:104EE0000CE6002080B483B000AF0B4B1B68002B96
:104EF00002D101237B6008E0084B1B68002B02D124
:104F000002237B6001E000237B607B6818460C373E
:104F1000BD465DF8047B704718E7002034E70020A9
:104F200080B584B000AF78607B68BB600023FB6015
:104F30007B68002B69D0BB68DA6A364B1B68DB6A7A
:104F40009A4259D2BB689B69002B06DB314B1B6828
:104F5000DB6AC3F10702BB689A61BB685969BB6829
:104F6000DA6A13469B0013449B002B4A1344994270
:104F70003AD1BB6804331846FCF788FA0346002B85
:104F800015D1BB68DA6A244913469B0013449B0081
:104F90000B441B68002B0AD1BB68DB6A012202FAB2
:104FA00003F3DA431D4B1B6813401C4A1360194B73
:104FB0001B68DA6ABB68DA62BB68DB6A01229A4066
:104FC000164B1B681343154A1360BB68DA6A134615
:104FD0009B0013449B00104A1A44BB6804331946D3
:104FE0001046FCF7F6F904E00A4B1B68DA6ABB6866
:104FF000DA620123FB6008E0BB68DA6C054B1B68D2
:10500000DB6A9A4201D20123FB60FB681846103725
:10501000BD4680BD0CE6002010E6002014E700200D
:1050200080B586B000AF78607B683B6100237B6110
:105030007B68002B6ED03A4B1B683A699A420AD0C3
:105040004FF0500383F31188BFF36F8FBFF34F8F7F
:10505000FB6000BFFEE73B691B6D002B0AD14FF0E0
:10506000500383F31188BFF36F8FBFF34F8FBB6083
:1050700000BFFEE73B691B6D5A1E3B691A653B6921
:10508000DA6A3B69DB6C9A4244D03B691B6D002BAA
:1050900040D13B6904331846FCF7F8F90346002B6E
:1050A00015D13B69DA6A1F4913469B0013449B00E4
:1050B0000B441B68002B0AD13B69DB6A012202FA10
:1050C00003F3DA43184B1B681340174A13603B691C
:1050D000DA6C3B69DA623B69DB6AC3F107023B6960
:1050E0009A613B69DB6A01229A400F4B1B681343AC
:1050F0000D4A13603B69DA6A13469B0013449B0018
:10510000084A1A443B69043319461046FCF761F912
:1051100001237B617B6918461837BD4680BD00BFFF
:105120000CE6002010E6002014E7002080B588B0CF
:1051300000AF786039607B68BB6101237B617B686D
:10514000002B00F08380BB691B6D002B0AD14FF050
:10515000500383F31188BFF36F8FBFF34F8FFB6052
:1051600000BFFEE7BB69DB6C3A689A4202D93B6834
:10517000FB6102E0BB69DB6CFB61BB69DB6AFA695E
:105180009A4263D0BB691B6D7A699A425ED1314BFA
:105190001B68BA699A420AD14FF0500383F3118811
:1051A000BFF36F8FBFF34F8FBB6000BFFEE7BB69DC
:1051B000DB6A3B61BB69FA69DA62BB699B69002BF8
:1051C00004DBFB69C3F10702BB699A61BB695969DA
:1051D0003A6913469B0013449B001F4A13449942AB
:1051E00034D1BB6904331846FCF750F90346002B51
:1051F00015D1BB69DA6A184913469B0013449B001A
:105200000B441B68002B0AD1BB69DB6A012202FA3E
:1052100003F3DA43114B1B681340104A1360BB6958
:10522000DB6A01229A400D4B1B6813430B4A136043
:10523000BB69DA6A13469B0013449B00064A1A4472
:10524000BB69043319461046FCF7C3F800BF20378A
:10525000BD4680BD0CE6002010E6002014E70020CB
:1052600080B483B000AF094B1B689B697B60074B20
:105270001B68DA6A054B1B68C2F107029A617B68FA
:1052800018460C37BD465DF8047B70470CE60020DD
:1052900080B400AF074B1B68002B04D0054B1B6884
:1052A0001A6D01321A65034B1B681846BD465DF83E
:1052B000047B70470CE6002080B584B000AF7860B6
:1052C000396000F08FFC1E4B1B685B6D002B13D107
:1052D0001B4B1B68012283F858203B68002B0BD026
:1052E0000121386800F0D2FA164B4FF080521A6054
:1052F000BFF34F8FBFF36F8F00F0A4FC00F072FC80
:105300000F4B1B685B6DFB60FB68002B0CD07B6850
:10531000002B04D00A4B1B6800225A6504E0084B9E
:105320001B68FA68013A5A65054B1B68002283F82E
:10533000582000F087FCFB6818461037BD4680BD3A
:105340000CE6002004ED00E080B586B000AFF86008
:10535000B9607A603B6000F045FC264B1B6893F80F
:105360005830DBB2022B1AD0224B1B68596DFA68F9
:10537000D2430A405A651F4B1B68012283F858200C
:105380003B68002B0BD00121386800F07FFA1A4BE4
:105390004FF080521A60BFF34F8FBFF36F8F00F052
:1053A00051FC00F01FFC7B68002B04D0114B1B68E4
:1053B0005A6D7B681A600F4B1B6893F85830DBB24C
:1053C000022B02D000237B6108E00A4B1B68596D59
:1053D000BA68D2430A405A6501237B61054B1B68BA
:1053E000002283F8582000F02DFC7B6918461837FE
:1053F000BD4680BD0CE6002004ED00E080B58AB01B
:1054000000AFF860B9603B601346FB7101237B621B
:10541000FB68002B0AD14FF0500383F31188BFF3D0
:105420006F8FBFF34F8FBB6100BFFEE7FB683B622E
:1054300000F0D8FB3B68002B03D03B6A5A6D3B68F9
:105440001A603B6A93F85830FB773B6A022283F874
:105450005820FB79042B28D801A252F823F000BF72
:10546000CB54000875540008835400088F5400087A
:10547000975400083B6A5A6DBB681A433B6A5A65E9
:1054800026E03B6A5B6D5A1C3B6A5A6520E03B6A2A
:10549000BA685A651CE0FB7F022B03D03B6ABA68EE
:1054A0005A6515E000237B6212E03B6A5B6DB3F145
:1054B000FF3F0CD04FF0500383F31188BFF36F8F81
:1054C000BFF34F8F7B6100BFFEE700BF00E000BF6E
:1054D000FB7F012B39D13B6A04331846FBF7D6FF1B
:1054E0003B6ADB6A01229A401B4B1B6813431A4A32
:1054F00013603B6ADA6A13469B0013449B00174A09
:105500001A443B6A043319461046FBF762FF3B6AB4
:105510009B6A002B0AD04FF0500383F31188BFF32E
:105520006F8FBFF34F8F3B6100BFFEE73B6ADA6AC4
:105530000B4B1B68DB6A9A4207D90A4B4FF080522B
:105540001A60BFF34F8FBFF36F8F00F07BFB7B6A56
:1055500018462837BD4680BD14E7002010E600201D
:105560000CE6002004ED00E080B58EB000AFF860DE
:10557000B9603B601346FB7101237B63FB68002B22
:105580000AD14FF0500383F31188BFF36F8FBFF33D
:105590004F8F7B6200BFFEE700F004FCFB683B63BB
:1055A000EFF311824FF0500383F31188BFF36F8F35
:1055B000BFF34F8F3A62FB613B6AFB623B68002B93
:1055C00003D03B6B5A6D3B681A603B6B93F85830C5
:1055D00087F82B303B6B022283F85820FB79042B91
:1055E00028D801A252F823F055560008FD550008AE
:1055F0000B560008175600081F5600083B6B5A6DE3
:10560000BB681A433B6B5A6527E03B6B5B6D5A1CCA
:105610003B6B5A6521E03B6BBA685A651DE097F811
:105620002B30022B03D03B6BBA685A6515E0002380
:105630007B6312E03B6B5B6DB3F1FF3F0CD04FF02F
:10564000500383F31188BFF36F8FBFF34F8FBB619C
:1056500000BFFEE700BF00E000BF97F82B30012B32
:1056600045D13B6B9B6A002B0AD04FF0500383F36C
:105670001188BFF36F8FBFF34F8F7B6100BFFEE7D1
:10568000204B1B68002B1CD13B6B04331846FBF7E7
:10569000FDFE3B6BDB6A01229A401B4B1B681343E8
:1056A000194A13603B6BDA6A13469B0013449B0054
:1056B000164A1A443B6B043319461046FBF789FE21
:1056C00005E03B6B183319461148FBF782FE3B6B34
:1056D000DA6A104B1B68DB6A9A4208D93B6C002BD4
:1056E00002D03B6C01221A600B4B01221A60FB6A4C
:1056F0003B613B6983F3118800BF7B6B18463837E9
:10570000BD4680BD34E7002014E7002010E60020ED
:10571000CCE600200CE6002020E7002080B58AB00F
:1057200000AF786039607B68002B0AD14FF05003DE
:1057300083F31188BFF36F8FBFF34F8FBB6100BF3F
:10574000FEE700F02FFB7B687B62EFF311824FF0E6
:10575000500383F31188BFF36F8FBFF34F8F7A61CC
:105760003B617B693B627B6A93F85830FB777B6ACD
:10577000022283F858207B6A5B6D5A1C7B6A5A654B
:10578000FB7F012B45D17B6A9B6A002B0AD04FF02F
:10579000500383F31188BFF36F8FBFF34F8FFB600C
:1057A00000BFFEE7204B1B68002B1CD17B6A043333
:1057B0001846FBF76BFE7B6ADB6A01229A401B4BA3
:1057C0001B681343194A13607B6ADA6A13469B000D
:1057D00013449B00164A1A447B6A04331946104648
:1057E000FBF7F7FD05E07B6A183319461148FBF714
:1057F000F0FD7B6ADA6A104B1B68DB6A9A4208D9B3
:105800003B68002B02D03B6801221A600B4B01223F
:105810001A603B6ABB60BB6883F3118800BF00BF9E
:105820002837BD4680BD00BF34E7002014E70020C4
:1058300010E60020CCE600200CE6002020E7002047
:1058400080B584B000AF78607B68002B02D10E4B2E
:105850001B6800E07B68BB6000F0C4F9BB6893F88C
:105860005830DBB2022B06D1BB68002283F85820E7
:105870000123FB6001E00023FB6000F0E3F9FB681B
:1058800018461037BD4680BD0CE6002080B584B0B8
:1058900000AF78603960294B1B68FB60284B1B68A0
:1058A00004331846FBF7F2FD0346002B0BD1244BC3
:1058B0001B68DB6A012202FA03F3DA43214B1B68FF
:1058C0001340204A13607B68B3F1FF3F0AD13B6865
:1058D000002B07D01A4B1B68043319461A48FBF7F4
:1058E00078FD26E0FA687B681344BB60144B1B68A4
:1058F000BA685A60BA68FB689A4209D2134B1A68B0
:105900000F4B1B68043319461046FBF786FD10E069
:105910000F4B1A680A4B1B68043319461046FBF7F5
:105920007CFD0C4B1B68BA689A4202D2094ABB68DC
:10593000136000BF1037BD4680BD00BF10E70020D8
:105940000CE6002014E70020F8E60020C8E600205E
:10595000C4E600202CE7002000000000000000004A
:1059600080B485B000AFF860B9607A60FB68043B32
:10597000FB60FB684FF080721A60FB68043BFB60C1
:10598000BB6823F00102FB681A60FB68043BFB6004
:105990000C4AFB681A60FB68143BFB607A68FB6882
:1059A0001A60FB68043BFB60FB686FF002021A6040
:1059B000FB68203BFB60FB6818461437BD465DF86A
:1059C000047B7047C959000880B485B000AF00233C
:1059D0007B60124B1B68B3F1FF3F0AD04FF05003BE
:1059E00083F31188BFF36F8FBFF34F8FFB6000BF4E
:1059F000FEE74FF0500383F31188BFF36F8FBFF3BF
:105A00004F8FBB6000BF00BF7B68002BFCD000BF86
:105A100000BF1437BD465DF8047B704704000020CA
:105A2000074B19680868B0E8F04F80F30988BFF3A6
:105A30006F8F4FF0000080F311887047AFF3008044
:105A40000CE6002000BFF7480068006880F3088873
:105A50004FF0000080F3148862B661B6BFF34F8F39
:105A6000BFF36F8F00DF00BF00BF80B586B000AF0F
:105A7000454B1B68454A93420AD14FF0500383F3CC
:105A80001188BFF36F8FBFF34F8F3B6100BFFEE7FD
:105A90003D4B1B683E4A93420AD14FF0500383F3BB
:105AA0001188BFF36F8FBFF34F8FFB6000BFFEE71E
:105AB000384B7B617B691B78DBB27B607B69FF22A3
:105AC0001A707B691B78DBB2FB70FB78DBB203F0EA
:105AD0005003DAB2304B1A70304B07221A6009E0DB
:105AE0002E4B1B68013B2D4A1360FB78DBB25B0039
